{
  "contractName": "CoffeeSupplyChain",
  "abi": [
    {
      "inputs": [],
      "stateMutability": "nonpayable",
      "type": "constructor"
    },
    {
      "anonymous": false,
      "inputs": [
        {
          "indexed": false,
          "internalType": "address",
          "name": "caller",
          "type": "address"
        }
      ],
      "name": "AuthorizedCaller",
      "type": "event"
    },
    {
      "anonymous": false,
      "inputs": [
        {
          "indexed": false,
          "internalType": "address",
          "name": "caller",
          "type": "address"
        }
      ],
      "name": "DeAuthorizedCaller",
      "type": "event"
    },
    {
      "anonymous": false,
      "inputs": [
        {
          "indexed": true,
          "internalType": "address",
          "name": "user",
          "type": "address"
        },
        {
          "indexed": true,
          "internalType": "address",
          "name": "batchNo",
          "type": "address"
        }
      ],
      "name": "DoneExporting",
      "type": "event"
    },
    {
      "anonymous": false,
      "inputs": [
        {
          "indexed": true,
          "internalType": "address",
          "name": "user",
          "type": "address"
        },
        {
          "indexed": true,
          "internalType": "address",
          "name": "batchNo",
          "type": "address"
        }
      ],
      "name": "DoneHarvesting",
      "type": "event"
    },
    {
      "anonymous": false,
      "inputs": [
        {
          "indexed": true,
          "internalType": "address",
          "name": "user",
          "type": "address"
        },
        {
          "indexed": true,
          "internalType": "address",
          "name": "batchNo",
          "type": "address"
        }
      ],
      "name": "DoneImporting",
      "type": "event"
    },
    {
      "anonymous": false,
      "inputs": [
        {
          "indexed": true,
          "internalType": "address",
          "name": "user",
          "type": "address"
        },
        {
          "indexed": true,
          "internalType": "address",
          "name": "batchNo",
          "type": "address"
        }
      ],
      "name": "DoneInspection",
      "type": "event"
    },
    {
      "anonymous": false,
      "inputs": [
        {
          "indexed": true,
          "internalType": "address",
          "name": "user",
          "type": "address"
        },
        {
          "indexed": true,
          "internalType": "address",
          "name": "batchNo",
          "type": "address"
        }
      ],
      "name": "DoneProcessing",
      "type": "event"
    },
    {
      "anonymous": false,
      "inputs": [
        {
          "indexed": true,
          "internalType": "address",
          "name": "previousOwner",
          "type": "address"
        }
      ],
      "name": "OwnershipRenounced",
      "type": "event"
    },
    {
      "anonymous": false,
      "inputs": [
        {
          "indexed": true,
          "internalType": "address",
          "name": "previousOwner",
          "type": "address"
        },
        {
          "indexed": true,
          "internalType": "address",
          "name": "newOwner",
          "type": "address"
        }
      ],
      "name": "OwnershipTransferred",
      "type": "event"
    },
    {
      "anonymous": false,
      "inputs": [
        {
          "indexed": true,
          "internalType": "address",
          "name": "user",
          "type": "address"
        },
        {
          "indexed": true,
          "internalType": "address",
          "name": "batchNo",
          "type": "address"
        }
      ],
      "name": "PerformCultivation",
      "type": "event"
    },
    {
      "anonymous": false,
      "inputs": [
        {
          "indexed": true,
          "internalType": "address",
          "name": "user",
          "type": "address"
        },
        {
          "indexed": false,
          "internalType": "string",
          "name": "role",
          "type": "string"
        }
      ],
      "name": "UserRoleUpdate",
      "type": "event"
    },
    {
      "anonymous": false,
      "inputs": [
        {
          "indexed": true,
          "internalType": "address",
          "name": "user",
          "type": "address"
        },
        {
          "indexed": false,
          "internalType": "string",
          "name": "name",
          "type": "string"
        },
        {
          "indexed": false,
          "internalType": "string",
          "name": "contactNo",
          "type": "string"
        },
        {
          "indexed": false,
          "internalType": "string",
          "name": "role",
          "type": "string"
        },
        {
          "indexed": false,
          "internalType": "bool",
          "name": "isActive",
          "type": "bool"
        },
        {
          "indexed": false,
          "internalType": "string",
          "name": "profileHash",
          "type": "string"
        }
      ],
      "name": "UserUpdate",
      "type": "event"
    },
    {
      "anonymous": false,
      "inputs": [
        {
          "indexed": true,
          "internalType": "address",
          "name": "user",
          "type": "address"
        },
        {
          "indexed": false,
          "internalType": "string",
          "name": "name",
          "type": "string"
        },
        {
          "indexed": false,
          "internalType": "string",
          "name": "contactNo",
          "type": "string"
        },
        {
          "indexed": false,
          "internalType": "string",
          "name": "role",
          "type": "string"
        },
        {
          "indexed": false,
          "internalType": "bool",
          "name": "isActive",
          "type": "bool"
        },
        {
          "indexed": false,
          "internalType": "string",
          "name": "profileHash",
          "type": "string"
        }
      ],
      "name": "setUsers",
      "type": "event"
    },
    {
      "inputs": [],
      "name": "lastAccess",
      "outputs": [
        {
          "internalType": "address",
          "name": "",
          "type": "address"
        }
      ],
      "stateMutability": "view",
      "type": "function",
      "constant": true
    },
    {
      "inputs": [],
      "name": "owner",
      "outputs": [
        {
          "internalType": "address",
          "name": "",
          "type": "address"
        }
      ],
      "stateMutability": "view",
      "type": "function",
      "constant": true
    },
    {
      "inputs": [],
      "name": "renounceOwnership",
      "outputs": [],
      "stateMutability": "nonpayable",
      "type": "function"
    },
    {
      "inputs": [
        {
          "internalType": "address",
          "name": "newOwner",
          "type": "address"
        }
      ],
      "name": "transferOwnership",
      "outputs": [],
      "stateMutability": "nonpayable",
      "type": "function"
    },
    {
      "inputs": [
        {
          "internalType": "address",
          "name": "_caller",
          "type": "address"
        }
      ],
      "name": "authorizeCaller",
      "outputs": [
        {
          "internalType": "bool",
          "name": "",
          "type": "bool"
        }
      ],
      "stateMutability": "nonpayable",
      "type": "function"
    },
    {
      "inputs": [
        {
          "internalType": "address",
          "name": "_caller",
          "type": "address"
        }
      ],
      "name": "deAuthorizeCaller",
      "outputs": [
        {
          "internalType": "bool",
          "name": "",
          "type": "bool"
        }
      ],
      "stateMutability": "nonpayable",
      "type": "function"
    },
    {
      "inputs": [
        {
          "internalType": "address",
          "name": "_userAddress",
          "type": "address"
        }
      ],
      "name": "getUserRole",
      "outputs": [
        {
          "internalType": "string",
          "name": "",
          "type": "string"
        }
      ],
      "stateMutability": "view",
      "type": "function",
      "constant": true
    },
    {
      "inputs": [
        {
          "internalType": "address",
          "name": "_batchNo",
          "type": "address"
        }
      ],
      "name": "getNextAction",
      "outputs": [
        {
          "internalType": "string",
          "name": "",
          "type": "string"
        }
      ],
      "stateMutability": "view",
      "type": "function",
      "constant": true
    },
    {
      "inputs": [
        {
          "internalType": "address",
          "name": "_userAddress",
          "type": "address"
        },
        {
          "internalType": "string",
          "name": "_name",
          "type": "string"
        },
        {
          "internalType": "string",
          "name": "_contactNo",
          "type": "string"
        },
        {
          "internalType": "string",
          "name": "_role",
          "type": "string"
        },
        {
          "internalType": "bool",
          "name": "_isActive",
          "type": "bool"
        },
        {
          "internalType": "string",
          "name": "_profileHash",
          "type": "string"
        }
      ],
      "name": "addUser",
      "outputs": [
        {
          "internalType": "bool",
          "name": "",
          "type": "bool"
        }
      ],
      "stateMutability": "nonpayable",
      "type": "function"
    },
    {
      "inputs": [
        {
          "internalType": "address",
          "name": "_userAddress",
          "type": "address"
        }
      ],
      "name": "getUser",
      "outputs": [
        {
          "internalType": "string",
          "name": "name",
          "type": "string"
        },
        {
          "internalType": "string",
          "name": "contactNo",
          "type": "string"
        },
        {
          "internalType": "string",
          "name": "role",
          "type": "string"
        },
        {
          "internalType": "bool",
          "name": "isActive",
          "type": "bool"
        },
        {
          "internalType": "string",
          "name": "profileHash",
          "type": "string"
        }
      ],
      "stateMutability": "view",
      "type": "function",
      "constant": true
    },
    {
      "inputs": [
        {
          "internalType": "address",
          "name": "_batchNo",
          "type": "address"
        }
      ],
      "name": "getBasicDetails",
      "outputs": [
        {
          "internalType": "string",
          "name": "registrationNo",
          "type": "string"
        },
        {
          "internalType": "string",
          "name": "farmerName",
          "type": "string"
        },
        {
          "internalType": "string",
          "name": "farmAddress",
          "type": "string"
        },
        {
          "internalType": "string",
          "name": "exporterName",
          "type": "string"
        },
        {
          "internalType": "string",
          "name": "importerName",
          "type": "string"
        }
      ],
      "stateMutability": "view",
      "type": "function",
      "constant": true
    },
    {
      "inputs": [
        {
          "internalType": "string",
          "name": "_registrationNo",
          "type": "string"
        },
        {
          "internalType": "string",
          "name": "_farmerName",
          "type": "string"
        },
        {
          "internalType": "string",
          "name": "_farmAddress",
          "type": "string"
        },
        {
          "internalType": "string",
          "name": "_exporterName",
          "type": "string"
        },
        {
          "internalType": "string",
          "name": "_importerName",
          "type": "string"
        }
      ],
      "name": "addBasicDetails",
      "outputs": [
        {
          "internalType": "address",
          "name": "",
          "type": "address"
        }
      ],
      "stateMutability": "nonpayable",
      "type": "function"
    },
    {
      "inputs": [
        {
          "internalType": "address",
          "name": "batchNo",
          "type": "address"
        }
      ],
      "name": "getFarmInspectorData",
      "outputs": [
        {
          "internalType": "string",
          "name": "coffeeFamily",
          "type": "string"
        },
        {
          "internalType": "string",
          "name": "typeOfSeed",
          "type": "string"
        },
        {
          "internalType": "string",
          "name": "fertilizerUsed",
          "type": "string"
        }
      ],
      "stateMutability": "view",
      "type": "function",
      "constant": true
    },
    {
      "inputs": [
        {
          "internalType": "address",
          "name": "batchNo",
          "type": "address"
        },
        {
          "internalType": "string",
          "name": "_coffeeFamily",
          "type": "string"
        },
        {
          "internalType": "string",
          "name": "_typeOfSeed",
          "type": "string"
        },
        {
          "internalType": "string",
          "name": "_fertilizerUsed",
          "type": "string"
        }
      ],
      "name": "updateFarmInspectorData",
      "outputs": [
        {
          "internalType": "bool",
          "name": "",
          "type": "bool"
        }
      ],
      "stateMutability": "nonpayable",
      "type": "function"
    },
    {
      "inputs": [
        {
          "internalType": "address",
          "name": "batchNo",
          "type": "address"
        }
      ],
      "name": "getHarvesterData",
      "outputs": [
        {
          "internalType": "string",
          "name": "cropVariety",
          "type": "string"
        },
        {
          "internalType": "string",
          "name": "temperatureUsed",
          "type": "string"
        },
        {
          "internalType": "string",
          "name": "humidity",
          "type": "string"
        }
      ],
      "stateMutability": "view",
      "type": "function",
      "constant": true
    },
    {
      "inputs": [
        {
          "internalType": "address",
          "name": "batchNo",
          "type": "address"
        },
        {
          "internalType": "string",
          "name": "_cropVariety",
          "type": "string"
        },
        {
          "internalType": "string",
          "name": "_temperatureUsed",
          "type": "string"
        },
        {
          "internalType": "string",
          "name": "_humidity",
          "type": "string"
        }
      ],
      "name": "updateHarvesterData",
      "outputs": [
        {
          "internalType": "bool",
          "name": "",
          "type": "bool"
        }
      ],
      "stateMutability": "nonpayable",
      "type": "function"
    },
    {
      "inputs": [
        {
          "internalType": "address",
          "name": "batchNo",
          "type": "address"
        }
      ],
      "name": "getExporterData",
      "outputs": [
        {
          "internalType": "uint256",
          "name": "quantity",
          "type": "uint256"
        },
        {
          "internalType": "string",
          "name": "destinationAddress",
          "type": "string"
        },
        {
          "internalType": "string",
          "name": "shipName",
          "type": "string"
        },
        {
          "internalType": "string",
          "name": "shipNo",
          "type": "string"
        },
        {
          "internalType": "uint256",
          "name": "departureDateTime",
          "type": "uint256"
        },
        {
          "internalType": "uint256",
          "name": "estimateDateTime",
          "type": "uint256"
        },
        {
          "internalType": "uint256",
          "name": "exporterId",
          "type": "uint256"
        }
      ],
      "stateMutability": "view",
      "type": "function",
      "constant": true
    },
    {
      "inputs": [
        {
          "internalType": "address",
          "name": "batchNo",
          "type": "address"
        },
        {
          "internalType": "uint256",
          "name": "_quantity",
          "type": "uint256"
        },
        {
          "internalType": "string",
          "name": "_destinationAddress",
          "type": "string"
        },
        {
          "internalType": "string",
          "name": "_shipName",
          "type": "string"
        },
        {
          "internalType": "string",
          "name": "_shipNo",
          "type": "string"
        },
        {
          "internalType": "uint256",
          "name": "_estimateDateTime",
          "type": "uint256"
        },
        {
          "internalType": "uint256",
          "name": "_exporterId",
          "type": "uint256"
        }
      ],
      "name": "updateExporterData",
      "outputs": [
        {
          "internalType": "bool",
          "name": "",
          "type": "bool"
        }
      ],
      "stateMutability": "nonpayable",
      "type": "function"
    },
    {
      "inputs": [
        {
          "internalType": "address",
          "name": "batchNo",
          "type": "address"
        },
        {
          "internalType": "uint256",
          "name": "_quantity",
          "type": "uint256"
        },
        {
          "internalType": "string",
          "name": "_shipName",
          "type": "string"
        },
        {
          "internalType": "string",
          "name": "_shipNo",
          "type": "string"
        },
        {
          "internalType": "string",
          "name": "_transportInfo",
          "type": "string"
        },
        {
          "internalType": "string",
          "name": "_warehouseName",
          "type": "string"
        },
        {
          "internalType": "string",
          "name": "_warehouseAddress",
          "type": "string"
        },
        {
          "internalType": "uint256",
          "name": "_importerId",
          "type": "uint256"
        }
      ],
      "name": "updateImporterData",
      "outputs": [
        {
          "internalType": "bool",
          "name": "",
          "type": "bool"
        }
      ],
      "stateMutability": "nonpayable",
      "type": "function"
    },
    {
      "inputs": [
        {
          "internalType": "address",
          "name": "batchNo",
          "type": "address"
        }
      ],
      "name": "getImporterData",
      "outputs": [
        {
          "internalType": "uint256",
          "name": "quantity",
          "type": "uint256"
        },
        {
          "internalType": "string",
          "name": "shipName",
          "type": "string"
        },
        {
          "internalType": "string",
          "name": "shipNo",
          "type": "string"
        },
        {
          "internalType": "uint256",
          "name": "arrivalDateTime",
          "type": "uint256"
        },
        {
          "internalType": "string",
          "name": "transportInfo",
          "type": "string"
        },
        {
          "internalType": "string",
          "name": "warehouseName",
          "type": "string"
        },
        {
          "internalType": "string",
          "name": "warehouseAddress",
          "type": "string"
        },
        {
          "internalType": "uint256",
          "name": "importerId",
          "type": "uint256"
        }
      ],
      "stateMutability": "view",
      "type": "function",
      "constant": true
    },
    {
      "inputs": [
        {
          "internalType": "address",
          "name": "batchNo",
          "type": "address"
        },
        {
          "internalType": "uint256",
          "name": "_quantity",
          "type": "uint256"
        },
        {
          "internalType": "string",
          "name": "_temperature",
          "type": "string"
        },
        {
          "internalType": "uint256",
          "name": "_rostingDuration",
          "type": "uint256"
        },
        {
          "internalType": "string",
          "name": "_internalBatchNo",
          "type": "string"
        },
        {
          "internalType": "uint256",
          "name": "_packageDateTime",
          "type": "uint256"
        },
        {
          "internalType": "string",
          "name": "_processorName",
          "type": "string"
        },
        {
          "internalType": "string",
          "name": "_processorAddress",
          "type": "string"
        }
      ],
      "name": "updateProcessorData",
      "outputs": [
        {
          "internalType": "bool",
          "name": "",
          "type": "bool"
        }
      ],
      "stateMutability": "nonpayable",
      "type": "function"
    },
    {
      "inputs": [
        {
          "internalType": "address",
          "name": "batchNo",
          "type": "address"
        }
      ],
      "name": "getProcessorData",
      "outputs": [
        {
          "internalType": "uint256",
          "name": "quantity",
          "type": "uint256"
        },
        {
          "internalType": "string",
          "name": "temperature",
          "type": "string"
        },
        {
          "internalType": "uint256",
          "name": "rostingDuration",
          "type": "uint256"
        },
        {
          "internalType": "string",
          "name": "internalBatchNo",
          "type": "string"
        },
        {
          "internalType": "uint256",
          "name": "packageDateTime",
          "type": "uint256"
        },
        {
          "internalType": "string",
          "name": "processorName",
          "type": "string"
        },
        {
          "internalType": "string",
          "name": "processorAddress",
          "type": "string"
        }
      ],
      "stateMutability": "view",
      "type": "function",
      "constant": true
    },
    {
      "inputs": [
        {
          "internalType": "address",
          "name": "_userAddress",
          "type": "address"
        },
        {
          "internalType": "string",
          "name": "_name",
          "type": "string"
        },
        {
          "internalType": "string",
          "name": "_contactNo",
          "type": "string"
        },
        {
          "internalType": "string",
          "name": "_role",
          "type": "string"
        },
        {
          "internalType": "bool",
          "name": "_isActive",
          "type": "bool"
        },
        {
          "internalType": "string",
          "name": "_profileHash",
          "type": "string"
        }
      ],
      "name": "updateUserForAdmin",
      "outputs": [
        {
          "internalType": "bool",
          "name": "",
          "type": "bool"
        }
      ],
      "stateMutability": "nonpayable",
      "type": "function"
    },
    {
      "inputs": [
        {
          "internalType": "address",
          "name": "_userAddress",
          "type": "address"
        },
        {
          "internalType": "string",
          "name": "_name",
          "type": "string"
        },
        {
          "internalType": "string",
          "name": "_contactNo",
          "type": "string"
        },
        {
          "internalType": "string",
          "name": "_role",
          "type": "string"
        },
        {
          "internalType": "bool",
          "name": "_isActive",
          "type": "bool"
        },
        {
          "internalType": "string",
          "name": "_profileHash",
          "type": "string"
        }
      ],
      "name": "userUpdate",
      "outputs": [
        {
          "internalType": "bool",
          "name": "",
          "type": "bool"
        }
      ],
      "stateMutability": "nonpayable",
      "type": "function"
    }
  ],
  "bytecode": "0x60806040523480156200001157600080fd5b50336000806101000a81548173ffffffffffffffffffffffffffffffffffffffff021916908373ffffffffffffffffffffffffffffffffffffffff1602179055506001600460003373ffffffffffffffffffffffffffffffffffffffff1673ffffffffffffffffffffffffffffffffffffffff16815260200190815260200160002060006101000a81548160ff021916908360ff1602179055507f8afeca650897be3183b7c0d24eba96a1b990f75c4bd74a0cfb2c0a71aec48e6133604051620000dc9190620000fb565b60405180910390a16200014c565b620000f58162000118565b82525050565b6000602082019050620001126000830184620000ea565b92915050565b600062000125826200012c565b9050919050565b600073ffffffffffffffffffffffffffffffffffffffff82169050919050565b61470c806200015c6000396000f3fe608060405234801561001057600080fd5b50600436106101585760003560e01c80637f89e94b116100c3578063d5faf6551161007c578063d5faf65514610487578063d8eceae0146104b7578063ebca7e1c146104e7578063f2997d7614610517578063f2fde38b1461054b578063febd04921461056757610158565b80637f89e94b1461036f57806381f960c2146103a157806389d42c2e146103d15780638da5cb5b14610401578063b6959d731461041f578063ca5322e51461045557610158565b80633480898b116101155780633480898b1461028357806347290118146102a15780634b205122146102d15780634d6b5e00146103015780636f77926b14610331578063715018a61461036557610158565b806302e716ca1461015d57806306ecd6d41461018d5780631bcd250a146101c35780631e7d76aa146101f357806327820851146102235780632c388d5d14610253575b600080fd5b61017760048036038101906101729190613ba9565b61059e565b604051610184919061414e565b60405180910390f35b6101a760048036038101906101a291906139ec565b6108d4565b6040516101ba97969594939291906142bc565b60405180910390f35b6101dd60048036038101906101d891906139ec565b610b53565b6040516101ea919061414e565b60405180910390f35b61020d60048036038101906102089190613ac0565b610c47565b60405161021a919061414e565b60405180910390f35b61023d600480360381019061023891906139ec565b610da0565b60405161024a9190614169565b60405180910390f35b61026d600480360381019061026891906139ec565b610e71565b60405161027a919061414e565b60405180910390f35b61028b610f65565b6040516102989190614133565b60405180910390f35b6102bb60048036038101906102b69190613cd3565b610f8b565b6040516102c8919061414e565b60405180910390f35b6102eb60048036038101906102e69190613ef4565b61126a565b6040516102f89190614133565b60405180910390f35b61031b600480360381019061031691906139ec565b611593565b6040516103289190614169565b60405180910390f35b61034b600480360381019061034691906139ec565b611664565b60405161035c9594939291906141d7565b60405180910390f35b61036d61197f565b005b610389600480360381019061038491906139ec565b611a7d565b6040516103989392919061418b565b60405180910390f35b6103bb60048036038101906103b69190613a15565b611ca3565b6040516103c8919061414e565b60405180910390f35b6103eb60048036038101906103e69190613db9565b611f25565b6040516103f8919061414e565b60405180910390f35b610409612221565b6040516104169190614133565b60405180910390f35b610439600480360381019061043491906139ec565b612245565b60405161044c97969594939291906143e1565b60405180910390f35b61046f600480360381019061046a91906139ec565b612543565b60405161047e9392919061418b565b60405180910390f35b6104a1600480360381019061049c9190613ac0565b612769565b6040516104ae919061414e565b60405180910390f35b6104d160048036038101906104cc9190613ac0565b612904565b6040516104de919061414e565b60405180910390f35b61050160048036038101906104fc9190613a15565b612afd565b60405161050e919061414e565b60405180910390f35b610531600480360381019061052c91906139ec565b612d7f565b604051610542959493929190614246565b60405180910390f35b610565600480360381019061056091906139ec565b6130dc565b005b610581600480360381019061057c91906139ec565b61322b565b604051610595989796959493929190614340565b60405180910390f35b6000886040518060400160405280600881526020017f494d504f52544552000000000000000000000000000000000000000000000000815250806040516020016105e8919061411c565b6040516020818303038152906040528051906020012061060733610da0565b604051602001610617919061411c565b604051602081830303815290604052805190602001201461063757600080fd5b80604051602001610648919061411c565b6040516020818303038152906040528051906020012061066783611593565b604051602001610677919061411c565b604051602081830303815290604052805190602001201461069757600080fd5b8960236000018190555088602360030190805190602001906106ba929190613800565b5087602360040190805190602001906106d4929190613800565b504260236001018190555086602360050190805190602001906106f8929190613800565b508560236006019080519060200190610712929190613800565b50846023600701908051906020019061072c929190613800565b50836023600201819055506023600960008d73ffffffffffffffffffffffffffffffffffffffff1673ffffffffffffffffffffffffffffffffffffffff16815260200190815260200160002060008201548160000155600182015481600101556002820154816002015560038201816003019080546107aa9061459e565b6107b5929190613886565b5060048201816004019080546107ca9061459e565b6107d5929190613886565b5060058201816005019080546107ea9061459e565b6107f5929190613886565b50600682018160060190805461080a9061459e565b610815929190613886565b50600782018160070190805461082a9061459e565b610835929190613886565b509050506040518060400160405280600981526020017f50524f434553534f520000000000000000000000000000000000000000000000815250600b60008d73ffffffffffffffffffffffffffffffffffffffff1673ffffffffffffffffffffffffffffffffffffffff16815260200190815260200160002090805190602001906108c1929190613800565b5060019250505098975050505050505050565b60006060806060600080600080600860008a73ffffffffffffffffffffffffffffffffffffffff1673ffffffffffffffffffffffffffffffffffffffff1681526020019081526020016000206040518061010001604052908160008201805461093c9061459e565b80601f01602080910402602001604051908101604052809291908181526020018280546109689061459e565b80156109b55780601f1061098a576101008083540402835291602001916109b5565b820191906000526020600020905b81548152906001019060200180831161099857829003601f168201915b505050505081526020016001820180546109ce9061459e565b80601f01602080910402602001604051908101604052809291908181526020018280546109fa9061459e565b8015610a475780601f10610a1c57610100808354040283529160200191610a47565b820191906000526020600020905b815481529060010190602001808311610a2a57829003601f168201915b50505050508152602001600282018054610a609061459e565b80601f0160208091040260200160405190810160405280929190818152602001828054610a8c9061459e565b8015610ad95780601f10610aae57610100808354040283529160200191610ad9565b820191906000526020600020905b815481529060010190602001808311610abc57829003601f168201915b50505050508152602001600382015481526020016004820154815260200160058201548152602001600682015481526020016007820154815250509050806060015181600001518260200151836040015184608001518560a001518660e00151975097509750975097509750975050919395979092949650565b60008060009054906101000a900473ffffffffffffffffffffffffffffffffffffffff1673ffffffffffffffffffffffffffffffffffffffff163373ffffffffffffffffffffffffffffffffffffffff1614610bae57600080fd5b6000600460008473ffffffffffffffffffffffffffffffffffffffff1673ffffffffffffffffffffffffffffffffffffffff16815260200190815260200160002060006101000a81548160ff021916908360ff1602179055507f9e8ca6ff03906e81e8a6a03d4f96b7edb0b97f0ed9d07ef1b699fff63438549682604051610c369190614133565b60405180910390a160019050919050565b60008060009054906101000a900473ffffffffffffffffffffffffffffffffffffffff1673ffffffffffffffffffffffffffffffffffffffff163373ffffffffffffffffffffffffffffffffffffffff1614610ca257600080fd5b600073ffffffffffffffffffffffffffffffffffffffff168773ffffffffffffffffffffffffffffffffffffffff161415610cdc57600080fd5b6000610cec888888888888612904565b90508773ffffffffffffffffffffffffffffffffffffffff167f913673700610456ef7bb668e20badb980d1e4df0ba5bfbdbb6e7bfb0ddbcc6c98888888888604051610d3c9594939291906141d7565b60405180910390a28773ffffffffffffffffffffffffffffffffffffffff167f3b419384c2ac88d62e2daac72f8c6e6398c474d91c63e814a307e3641762c8de86604051610d8a9190614169565b60405180910390a2809150509695505050505050565b6060600360008373ffffffffffffffffffffffffffffffffffffffff1673ffffffffffffffffffffffffffffffffffffffff1681526020019081526020016000208054610dec9061459e565b80601f0160208091040260200160405190810160405280929190818152602001828054610e189061459e565b8015610e655780601f10610e3a57610100808354040283529160200191610e65565b820191906000526020600020905b815481529060010190602001808311610e4857829003601f168201915b50505050509050919050565b60008060009054906101000a900473ffffffffffffffffffffffffffffffffffffffff1673ffffffffffffffffffffffffffffffffffffffff163373ffffffffffffffffffffffffffffffffffffffff1614610ecc57600080fd5b6001600460008473ffffffffffffffffffffffffffffffffffffffff1673ffffffffffffffffffffffffffffffffffffffff16815260200190815260200160002060006101000a81548160ff021916908360ff1602179055507f8afeca650897be3183b7c0d24eba96a1b990f75c4bd74a0cfb2c0a71aec48e6182604051610f549190614133565b60405180910390a160019050919050565b600160009054906101000a900473ffffffffffffffffffffffffffffffffffffffff1681565b6000876040518060400160405280600881526020017f4558504f5254455200000000000000000000000000000000000000000000000081525080604051602001610fd5919061411c565b60405160208183030381529060405280519060200120610ff433610da0565b604051602001611004919061411c565b604051602081830303815290604052805190602001201461102457600080fd5b80604051602001611035919061411c565b6040516020818303038152906040528051906020012061105483611593565b604051602001611064919061411c565b604051602081830303815290604052805190602001201461108457600080fd5b88601b6003018190555087601b60000190805190602001906110a7929190613800565b5086601b60010190805190602001906110c1929190613800565b5085601b60020190805190602001906110db929190613800565b5042601b6004018190555084601b6005018190555083601b60070181905550601b600860008c73ffffffffffffffffffffffffffffffffffffffff1673ffffffffffffffffffffffffffffffffffffffff168152602001908152602001600020600082018160000190805461114f9061459e565b61115a929190613886565b50600182018160010190805461116f9061459e565b61117a929190613886565b50600282018160020190805461118f9061459e565b61119a929190613886565b5060038201548160030155600482015481600401556005820154816005015560068201548160060155600782015481600701559050506040518060400160405280600881526020017f494d504f52544552000000000000000000000000000000000000000000000000815250600b60008c73ffffffffffffffffffffffffffffffffffffffff1673ffffffffffffffffffffffffffffffffffffffff1681526020019081526020016000209080519060200190611258929190613800565b50600192505050979650505050505050565b60008060009054906101000a900473ffffffffffffffffffffffffffffffffffffffff1673ffffffffffffffffffffffffffffffffffffffff163373ffffffffffffffffffffffffffffffffffffffff16146112c557600080fd5b6000600233426040516020016112dc9291906140d9565b6040516020818303038152906040526040516112f89190614105565b602060405180830381855afa158015611315573d6000803e3d6000fd5b5050506040513d601f19601f820116820180604052508101906113389190613ecb565b60601c90508660106000019080519060200190611356929190613800565b508560106001019080519060200190611370929190613800565b50846010600201908051906020019061138a929190613800565b5083601060030190805190602001906113a4929190613800565b5082601060040190805190602001906113be929190613800565b506010600560008373ffffffffffffffffffffffffffffffffffffffff1673ffffffffffffffffffffffffffffffffffffffff16815260200190815260200160002060008201816000019080546114149061459e565b61141f929190613886565b5060018201816001019080546114349061459e565b61143f929190613886565b5060028201816002019080546114549061459e565b61145f929190613886565b5060038201816003019080546114749061459e565b61147f929190613886565b5060048201816004019080546114949061459e565b61149f929190613886565b509050506040518060400160405280600f81526020017f4641524d5f494e5350454354494f4e0000000000000000000000000000000000815250600b60008373ffffffffffffffffffffffffffffffffffffffff1673ffffffffffffffffffffffffffffffffffffffff168152602001908152602001600020908051906020019061152b929190613800565b508073ffffffffffffffffffffffffffffffffffffffff163373ffffffffffffffffffffffffffffffffffffffff167ffb0cd0976d848f2ad8c4a6963c1295c96186b2f3919c8204b4fcb350fc36a31f60405160405180910390a38091505095945050505050565b6060600b60008373ffffffffffffffffffffffffffffffffffffffff1673ffffffffffffffffffffffffffffffffffffffff16815260200190815260200160002080546115df9061459e565b80601f016020809104026020016040519081016040528092919081815260200182805461160b9061459e565b80156116585780601f1061162d57610100808354040283529160200191611658565b820191906000526020600020905b81548152906001019060200180831161163b57829003601f168201915b50505050509050919050565b6060806060600060606000600260008873ffffffffffffffffffffffffffffffffffffffff1673ffffffffffffffffffffffffffffffffffffffff1681526020019081526020016000206040518060800160405290816000820180546116c99061459e565b80601f01602080910402602001604051908101604052809291908181526020018280546116f59061459e565b80156117425780601f1061171757610100808354040283529160200191611742565b820191906000526020600020905b81548152906001019060200180831161172557829003601f168201915b5050505050815260200160018201805461175b9061459e565b80601f01602080910402602001604051908101604052809291908181526020018280546117879061459e565b80156117d45780601f106117a9576101008083540402835291602001916117d4565b820191906000526020600020905b8154815290600101906020018083116117b757829003601f168201915b505050505081526020016002820160009054906101000a900460ff161515151581526020016003820180546118089061459e565b80601f01602080910402602001604051908101604052809291908181526020018280546118349061459e565b80156118815780601f1061185657610100808354040283529160200191611881565b820191906000526020600020905b81548152906001019060200180831161186457829003601f168201915b505050505081525050905080600001518160200151600360008a73ffffffffffffffffffffffffffffffffffffffff1673ffffffffffffffffffffffffffffffffffffffff168152602001908152602001600020836040015184606001518280546118eb9061459e565b80601f01602080910402602001604051908101604052809291908181526020018280546119179061459e565b80156119645780601f1061193957610100808354040283529160200191611964565b820191906000526020600020905b81548152906001019060200180831161194757829003601f168201915b50505050509250955095509550955095505091939590929450565b60008054906101000a900473ffffffffffffffffffffffffffffffffffffffff1673ffffffffffffffffffffffffffffffffffffffff163373ffffffffffffffffffffffffffffffffffffffff16146119d757600080fd5b60008054906101000a900473ffffffffffffffffffffffffffffffffffffffff1673ffffffffffffffffffffffffffffffffffffffff167ff8df31144d9c2f0f6b59d69b8b98abd5459d07f2742c4df920b25aae33c6482060405160405180910390a260008060006101000a81548173ffffffffffffffffffffffffffffffffffffffff021916908373ffffffffffffffffffffffffffffffffffffffff160217905550565b60608060606000600660008673ffffffffffffffffffffffffffffffffffffffff1673ffffffffffffffffffffffffffffffffffffffff168152602001908152602001600020604051806060016040529081600082018054611ade9061459e565b80601f0160208091040260200160405190810160405280929190818152602001828054611b0a9061459e565b8015611b575780601f10611b2c57610100808354040283529160200191611b57565b820191906000526020600020905b815481529060010190602001808311611b3a57829003601f168201915b50505050508152602001600182018054611b709061459e565b80601f0160208091040260200160405190810160405280929190818152602001828054611b9c9061459e565b8015611be95780601f10611bbe57610100808354040283529160200191611be9565b820191906000526020600020905b815481529060010190602001808311611bcc57829003601f168201915b50505050508152602001600282018054611c029061459e565b80601f0160208091040260200160405190810160405280929190818152602001828054611c2e9061459e565b8015611c7b5780601f10611c5057610100808354040283529160200191611c7b565b820191906000526020600020905b815481529060010190602001808311611c5e57829003601f168201915b5050505050815250509050806000015181602001518260400151935093509350509193909250565b6000846040518060400160405280600f81526020017f4641524d5f494e5350454354494f4e000000000000000000000000000000000081525080604051602001611ced919061411c565b60405160208183030381529060405280519060200120611d0c33610da0565b604051602001611d1c919061411c565b6040516020818303038152906040528051906020012014611d3c57600080fd5b80604051602001611d4d919061411c565b60405160208183030381529060405280519060200120611d6c83611593565b604051602001611d7c919061411c565b6040516020818303038152906040528051906020012014611d9c57600080fd5b8560156000019080519060200190611db5929190613800565b508460156001019080519060200190611dcf929190613800565b508360156002019080519060200190611de9929190613800565b506015600660008973ffffffffffffffffffffffffffffffffffffffff1673ffffffffffffffffffffffffffffffffffffffff1681526020019081526020016000206000820181600001908054611e3f9061459e565b611e4a929190613886565b506001820181600101908054611e5f9061459e565b611e6a929190613886565b506002820181600201908054611e7f9061459e565b611e8a929190613886565b509050506040518060400160405280600981526020017f4841525645535445520000000000000000000000000000000000000000000000815250600b60008973ffffffffffffffffffffffffffffffffffffffff1673ffffffffffffffffffffffffffffffffffffffff1681526020019081526020016000209080519060200190611f16929190613800565b50600192505050949350505050565b6000886040518060400160405280600981526020017f50524f434553534f52000000000000000000000000000000000000000000000081525080604051602001611f6f919061411c565b60405160208183030381529060405280519060200120611f8e33610da0565b604051602001611f9e919061411c565b6040516020818303038152906040528051906020012014611fbe57600080fd5b80604051602001611fcf919061411c565b60405160208183030381529060405280519060200120611fee83611593565b604051602001611ffe919061411c565b604051602081830303815290604052805190602001201461201e57600080fd5b89602b6000018190555088602b6003019080519060200190612041929190613800565b5087602b6001018190555086602b6004019080519060200190612065929190613800565b5085602b6002018190555084602b6005019080519060200190612089929190613800565b5083602b60060190805190602001906120a3929190613800565b50602b600a60008d73ffffffffffffffffffffffffffffffffffffffff1673ffffffffffffffffffffffffffffffffffffffff16815260200190815260200160002060008201548160000155600182015481600101556002820154816002015560038201816003019080546121179061459e565b612122929190613886565b5060048201816004019080546121379061459e565b612142929190613886565b5060058201816005019080546121579061459e565b612162929190613886565b5060068201816006019080546121779061459e565b612182929190613886565b509050506040518060400160405280600481526020017f444f4e4500000000000000000000000000000000000000000000000000000000815250600b60008d73ffffffffffffffffffffffffffffffffffffffff1673ffffffffffffffffffffffffffffffffffffffff168152602001908152602001600020908051906020019061220e929190613800565b5060019250505098975050505050505050565b60008054906101000a900473ffffffffffffffffffffffffffffffffffffffff1681565b600060606000606060006060806000600a60008a73ffffffffffffffffffffffffffffffffffffffff1673ffffffffffffffffffffffffffffffffffffffff1681526020019081526020016000206040518060e00160405290816000820154815260200160018201548152602001600282015481526020016003820180546122cc9061459e565b80601f01602080910402602001604051908101604052809291908181526020018280546122f89061459e565b80156123455780601f1061231a57610100808354040283529160200191612345565b820191906000526020600020905b81548152906001019060200180831161232857829003601f168201915b5050505050815260200160048201805461235e9061459e565b80601f016020809104026020016040519081016040528092919081815260200182805461238a9061459e565b80156123d75780601f106123ac576101008083540402835291602001916123d7565b820191906000526020600020905b8154815290600101906020018083116123ba57829003601f168201915b505050505081526020016005820180546123f09061459e565b80601f016020809104026020016040519081016040528092919081815260200182805461241c9061459e565b80156124695780601f1061243e57610100808354040283529160200191612469565b820191906000526020600020905b81548152906001019060200180831161244c57829003601f168201915b505050505081526020016006820180546124829061459e565b80601f01602080910402602001604051908101604052809291908181526020018280546124ae9061459e565b80156124fb5780601f106124d0576101008083540402835291602001916124fb565b820191906000526020600020905b8154815290600101906020018083116124de57829003601f168201915b5050505050815250509050806000015181606001518260200151836080015184604001518560a001518660c00151975097509750975097509750975050919395979092949650565b60608060606000600760008673ffffffffffffffffffffffffffffffffffffffff1673ffffffffffffffffffffffffffffffffffffffff1681526020019081526020016000206040518060600160405290816000820180546125a49061459e565b80601f01602080910402602001604051908101604052809291908181526020018280546125d09061459e565b801561261d5780601f106125f25761010080835404028352916020019161261d565b820191906000526020600020905b81548152906001019060200180831161260057829003601f168201915b505050505081526020016001820180546126369061459e565b80601f01602080910402602001604051908101604052809291908181526020018280546126629061459e565b80156126af5780601f10612684576101008083540402835291602001916126af565b820191906000526020600020905b81548152906001019060200180831161269257829003601f168201915b505050505081526020016002820180546126c89061459e565b80601f01602080910402602001604051908101604052809291908181526020018280546126f49061459e565b80156127415780601f1061271657610100808354040283529160200191612741565b820191906000526020600020905b81548152906001019060200180831161272457829003601f168201915b5050505050815250509050806000015181602001518260400151935093509350509193909250565b600033600160006101000a81548173ffffffffffffffffffffffffffffffffffffffff021916908373ffffffffffffffffffffffffffffffffffffffff1602179055506001600460003373ffffffffffffffffffffffffffffffffffffffff1673ffffffffffffffffffffffffffffffffffffffff16815260200190815260200160002060009054906101000a900460ff1660ff161461280857600080fd5b8673ffffffffffffffffffffffffffffffffffffffff163373ffffffffffffffffffffffffffffffffffffffff161461284057600080fd5b60006128508888888888886135c3565b90508773ffffffffffffffffffffffffffffffffffffffff167f5ae5d68b84e290836cda4bc7e82ce2f7e17d2716730890dadde114e1b775146d88888888886040516128a09594939291906141d7565b60405180910390a28773ffffffffffffffffffffffffffffffffffffffff167f3b419384c2ac88d62e2daac72f8c6e6398c474d91c63e814a307e3641762c8de866040516128ee9190614169565b60405180910390a2809150509695505050505050565b60008060009054906101000a900473ffffffffffffffffffffffffffffffffffffffff1673ffffffffffffffffffffffffffffffffffffffff163373ffffffffffffffffffffffffffffffffffffffff161461295f57600080fd5b85600c6000019080519060200190612978929190613800565b5084600c6001019080519060200190612992929190613800565b5082600c60020160006101000a81548160ff02191690831515021790555081600c60030190805190602001906129c9929190613800565b50600c600260008973ffffffffffffffffffffffffffffffffffffffff1673ffffffffffffffffffffffffffffffffffffffff1681526020019081526020016000206000820181600001908054612a1f9061459e565b612a2a929190613886565b506001820181600101908054612a3f9061459e565b612a4a929190613886565b506002820160009054906101000a900460ff168160020160006101000a81548160ff0219169083151502179055506003820181600301908054612a8c9061459e565b612a97929190613886565b5090505083600360008973ffffffffffffffffffffffffffffffffffffffff1673ffffffffffffffffffffffffffffffffffffffff1681526020019081526020016000209080519060200190612aee929190613800565b50600190509695505050505050565b6000846040518060400160405280600981526020017f484152564553544552000000000000000000000000000000000000000000000081525080604051602001612b47919061411c565b60405160208183030381529060405280519060200120612b6633610da0565b604051602001612b76919061411c565b6040516020818303038152906040528051906020012014612b9657600080fd5b80604051602001612ba7919061411c565b60405160208183030381529060405280519060200120612bc683611593565b604051602001612bd6919061411c565b6040516020818303038152906040528051906020012014612bf657600080fd5b8560186000019080519060200190612c0f929190613800565b508460186001019080519060200190612c29929190613800565b508360186002019080519060200190612c43929190613800565b506018600760008973ffffffffffffffffffffffffffffffffffffffff1673ffffffffffffffffffffffffffffffffffffffff1681526020019081526020016000206000820181600001908054612c999061459e565b612ca4929190613886565b506001820181600101908054612cb99061459e565b612cc4929190613886565b506002820181600201908054612cd99061459e565b612ce4929190613886565b509050506040518060400160405280600881526020017f4558504f52544552000000000000000000000000000000000000000000000000815250600b60008973ffffffffffffffffffffffffffffffffffffffff1673ffffffffffffffffffffffffffffffffffffffff1681526020019081526020016000209080519060200190612d70929190613800565b50600192505050949350505050565b60608060608060606000600560008873ffffffffffffffffffffffffffffffffffffffff1673ffffffffffffffffffffffffffffffffffffffff1681526020019081526020016000206040518060a0016040529081600082018054612de39061459e565b80601f0160208091040260200160405190810160405280929190818152602001828054612e0f9061459e565b8015612e5c5780601f10612e3157610100808354040283529160200191612e5c565b820191906000526020600020905b815481529060010190602001808311612e3f57829003601f168201915b50505050508152602001600182018054612e759061459e565b80601f0160208091040260200160405190810160405280929190818152602001828054612ea19061459e565b8015612eee5780601f10612ec357610100808354040283529160200191612eee565b820191906000526020600020905b815481529060010190602001808311612ed157829003601f168201915b50505050508152602001600282018054612f079061459e565b80601f0160208091040260200160405190810160405280929190818152602001828054612f339061459e565b8015612f805780601f10612f5557610100808354040283529160200191612f80565b820191906000526020600020905b815481529060010190602001808311612f6357829003601f168201915b50505050508152602001600382018054612f999061459e565b80601f0160208091040260200160405190810160405280929190818152602001828054612fc59061459e565b80156130125780601f10612fe757610100808354040283529160200191613012565b820191906000526020600020905b815481529060010190602001808311612ff557829003601f168201915b5050505050815260200160048201805461302b9061459e565b80601f01602080910402602001604051908101604052809291908181526020018280546130579061459e565b80156130a45780601f10613079576101008083540402835291602001916130a4565b820191906000526020600020905b81548152906001019060200180831161308757829003601f168201915b505050505081525050905080600001518160200151826040015183606001518460800151955095509550955095505091939590929450565b60008054906101000a900473ffffffffffffffffffffffffffffffffffffffff1673ffffffffffffffffffffffffffffffffffffffff163373ffffffffffffffffffffffffffffffffffffffff161461313457600080fd5b600073ffffffffffffffffffffffffffffffffffffffff168173ffffffffffffffffffffffffffffffffffffffff16141561316e57600080fd5b8073ffffffffffffffffffffffffffffffffffffffff1660008054906101000a900473ffffffffffffffffffffffffffffffffffffffff1673ffffffffffffffffffffffffffffffffffffffff167f8be0079c531659141344cd1fd0a4f28419497f9722a3daafe3b4186f6b6457e060405160405180910390a3806000806101000a81548173ffffffffffffffffffffffffffffffffffffffff021916908373ffffffffffffffffffffffffffffffffffffffff16021790555050565b600060608060006060806060600080600960008b73ffffffffffffffffffffffffffffffffffffffff1673ffffffffffffffffffffffffffffffffffffffff168152602001908152602001600020604051806101000160405290816000820154815260200160018201548152602001600282015481526020016003820180546132b39061459e565b80601f01602080910402602001604051908101604052809291908181526020018280546132df9061459e565b801561332c5780601f106133015761010080835404028352916020019161332c565b820191906000526020600020905b81548152906001019060200180831161330f57829003601f168201915b505050505081526020016004820180546133459061459e565b80601f01602080910402602001604051908101604052809291908181526020018280546133719061459e565b80156133be5780601f10613393576101008083540402835291602001916133be565b820191906000526020600020905b8154815290600101906020018083116133a157829003601f168201915b505050505081526020016005820180546133d79061459e565b80601f01602080910402602001604051908101604052809291908181526020018280546134039061459e565b80156134505780601f1061342557610100808354040283529160200191613450565b820191906000526020600020905b81548152906001019060200180831161343357829003601f168201915b505050505081526020016006820180546134699061459e565b80601f01602080910402602001604051908101604052809291908181526020018280546134959061459e565b80156134e25780601f106134b7576101008083540402835291602001916134e2565b820191906000526020600020905b8154815290600101906020018083116134c557829003601f168201915b505050505081526020016007820180546134fb9061459e565b80601f01602080910402602001604051908101604052809291908181526020018280546135279061459e565b80156135745780601f1061354957610100808354040283529160200191613574565b820191906000526020600020905b81548152906001019060200180831161355757829003601f168201915b505050505081525050905080600001518160600151826080015183602001518460a001518560c001518660e0015187604001519850985098509850985098509850985050919395975091939597565b600033600160006101000a81548173ffffffffffffffffffffffffffffffffffffffff021916908373ffffffffffffffffffffffffffffffffffffffff1602179055506001600460003373ffffffffffffffffffffffffffffffffffffffff1673ffffffffffffffffffffffffffffffffffffffff16815260200190815260200160002060009054906101000a900460ff1660ff161461366257600080fd5b85600c600001908051906020019061367b929190613800565b5084600c6001019080519060200190613695929190613800565b5082600c60020160006101000a81548160ff02191690831515021790555081600c60030190805190602001906136cc929190613800565b50600c600260008973ffffffffffffffffffffffffffffffffffffffff1673ffffffffffffffffffffffffffffffffffffffff16815260200190815260200160002060008201816000019080546137229061459e565b61372d929190613886565b5060018201816001019080546137429061459e565b61374d929190613886565b506002820160009054906101000a900460ff168160020160006101000a81548160ff021916908315150217905550600382018160030190805461378f9061459e565b61379a929190613886565b5090505083600360008973ffffffffffffffffffffffffffffffffffffffff1673ffffffffffffffffffffffffffffffffffffffff16815260200190815260200160002090805190602001906137f1929190613800565b50600190509695505050505050565b82805461380c9061459e565b90600052602060002090601f01602090048101928261382e5760008555613875565b82601f1061384757805160ff1916838001178555613875565b82800160010185558215613875579182015b82811115613874578251825591602001919060010190613859565b5b5090506138829190613913565b5090565b8280546138929061459e565b90600052602060002090601f0160209004810192826138b45760008555613902565b82601f106138c55780548555613902565b8280016001018555821561390257600052602060002091601f016020900482015b828111156139015782548255916001019190600101906138e6565b5b50905061390f9190613913565b5090565b5b8082111561392c576000816000905550600101613914565b5090565b600061394361393e8461449d565b61446c565b90508281526020810184848401111561395b57600080fd5b61396684828561455c565b509392505050565b60008135905061397d8161467a565b92915050565b60008135905061399281614691565b92915050565b6000815190506139a7816146a8565b92915050565b600082601f8301126139be57600080fd5b81356139ce848260208601613930565b91505092915050565b6000813590506139e6816146bf565b92915050565b6000602082840312156139fe57600080fd5b6000613a0c8482850161396e565b91505092915050565b60008060008060808587031215613a2b57600080fd5b6000613a398782880161396e565b945050602085013567ffffffffffffffff811115613a5657600080fd5b613a62878288016139ad565b935050604085013567ffffffffffffffff811115613a7f57600080fd5b613a8b878288016139ad565b925050606085013567ffffffffffffffff811115613aa857600080fd5b613ab4878288016139ad565b91505092959194509250565b60008060008060008060c08789031215613ad957600080fd5b6000613ae789828a0161396e565b965050602087013567ffffffffffffffff811115613b0457600080fd5b613b1089828a016139ad565b955050604087013567ffffffffffffffff811115613b2d57600080fd5b613b3989828a016139ad565b945050606087013567ffffffffffffffff811115613b5657600080fd5b613b6289828a016139ad565b9350506080613b7389828a01613983565b92505060a087013567ffffffffffffffff811115613b9057600080fd5b613b9c89828a016139ad565b9150509295509295509295565b600080600080600080600080610100898b031215613bc657600080fd5b6000613bd48b828c0161396e565b9850506020613be58b828c016139d7565b975050604089013567ffffffffffffffff811115613c0257600080fd5b613c0e8b828c016139ad565b965050606089013567ffffffffffffffff811115613c2b57600080fd5b613c378b828c016139ad565b955050608089013567ffffffffffffffff811115613c5457600080fd5b613c608b828c016139ad565b94505060a089013567ffffffffffffffff811115613c7d57600080fd5b613c898b828c016139ad565b93505060c089013567ffffffffffffffff811115613ca657600080fd5b613cb28b828c016139ad565b92505060e0613cc38b828c016139d7565b9150509295985092959890939650565b600080600080600080600060e0888a031215613cee57600080fd5b6000613cfc8a828b0161396e565b9750506020613d0d8a828b016139d7565b965050604088013567ffffffffffffffff811115613d2a57600080fd5b613d368a828b016139ad565b955050606088013567ffffffffffffffff811115613d5357600080fd5b613d5f8a828b016139ad565b945050608088013567ffffffffffffffff811115613d7c57600080fd5b613d888a828b016139ad565b93505060a0613d998a828b016139d7565b92505060c0613daa8a828b016139d7565b91505092959891949750929550565b600080600080600080600080610100898b031215613dd657600080fd5b6000613de48b828c0161396e565b9850506020613df58b828c016139d7565b975050604089013567ffffffffffffffff811115613e1257600080fd5b613e1e8b828c016139ad565b9650506060613e2f8b828c016139d7565b955050608089013567ffffffffffffffff811115613e4c57600080fd5b613e588b828c016139ad565b94505060a0613e698b828c016139d7565b93505060c089013567ffffffffffffffff811115613e8657600080fd5b613e928b828c016139ad565b92505060e089013567ffffffffffffffff811115613eaf57600080fd5b613ebb8b828c016139ad565b9150509295985092959890939650565b600060208284031215613edd57600080fd5b6000613eeb84828501613998565b91505092915050565b600080600080600060a08688031215613f0c57600080fd5b600086013567ffffffffffffffff811115613f2657600080fd5b613f32888289016139ad565b955050602086013567ffffffffffffffff811115613f4f57600080fd5b613f5b888289016139ad565b945050604086013567ffffffffffffffff811115613f7857600080fd5b613f84888289016139ad565b935050606086013567ffffffffffffffff811115613fa157600080fd5b613fad888289016139ad565b925050608086013567ffffffffffffffff811115613fca57600080fd5b613fd6888289016139ad565b9150509295509295909350565b613fec8161450a565b82525050565b614003613ffe8261450a565b6145d0565b82525050565b6140128161451c565b82525050565b6000614023826144cd565b61402d81856144e3565b935061403d81856020860161456b565b80840191505092915050565b6000614054826144d8565b61405e81856144ee565b935061406e81856020860161456b565b6140778161465c565b840191505092915050565b600061408d826144d8565b61409781856144ff565b93506140a781856020860161456b565b80840191505092915050565b6140bc81614552565b82525050565b6140d36140ce82614552565b6145f4565b82525050565b60006140e58285613ff2565b6014820191506140f582846140c2565b6020820191508190509392505050565b60006141118284614018565b915081905092915050565b60006141288284614082565b915081905092915050565b60006020820190506141486000830184613fe3565b92915050565b60006020820190506141636000830184614009565b92915050565b600060208201905081810360008301526141838184614049565b905092915050565b600060608201905081810360008301526141a58186614049565b905081810360208301526141b98185614049565b905081810360408301526141cd8184614049565b9050949350505050565b600060a08201905081810360008301526141f18188614049565b905081810360208301526142058187614049565b905081810360408301526142198186614049565b90506142286060830185614009565b818103608083015261423a8184614049565b90509695505050505050565b600060a08201905081810360008301526142608188614049565b905081810360208301526142748187614049565b905081810360408301526142888186614049565b9050818103606083015261429c8185614049565b905081810360808301526142b08184614049565b90509695505050505050565b600060e0820190506142d1600083018a6140b3565b81810360208301526142e38189614049565b905081810360408301526142f78188614049565b9050818103606083015261430b8187614049565b905061431a60808301866140b3565b61432760a08301856140b3565b61433460c08301846140b3565b98975050505050505050565b600061010082019050614356600083018b6140b3565b8181036020830152614368818a614049565b9050818103604083015261437c8189614049565b905061438b60608301886140b3565b818103608083015261439d8187614049565b905081810360a08301526143b18186614049565b905081810360c08301526143c58185614049565b90506143d460e08301846140b3565b9998505050505050505050565b600060e0820190506143f6600083018a6140b3565b81810360208301526144088189614049565b905061441760408301886140b3565b81810360608301526144298187614049565b905061443860808301866140b3565b81810360a083015261444a8185614049565b905081810360c083015261445e8184614049565b905098975050505050505050565b6000604051905081810181811067ffffffffffffffff821117156144935761449261462d565b5b8060405250919050565b600067ffffffffffffffff8211156144b8576144b761462d565b5b601f19601f8301169050602081019050919050565b600081519050919050565b600081519050919050565b600081905092915050565b600082825260208201905092915050565b600081905092915050565b600061451582614532565b9050919050565b60008115159050919050565b6000819050919050565b600073ffffffffffffffffffffffffffffffffffffffff82169050919050565b6000819050919050565b82818337600083830152505050565b60005b8381101561458957808201518184015260208101905061456e565b83811115614598576000848401525b50505050565b600060028204905060018216806145b657607f821691505b602082108114156145ca576145c96145fe565b5b50919050565b60006145db826145e2565b9050919050565b60006145ed8261466d565b9050919050565b6000819050919050565b7f4e487b7100000000000000000000000000000000000000000000000000000000600052602260045260246000fd5b7f4e487b7100000000000000000000000000000000000000000000000000000000600052604160045260246000fd5b6000601f19601f8301169050919050565b60008160601b9050919050565b6146838161450a565b811461468e57600080fd5b50565b61469a8161451c565b81146146a557600080fd5b50565b6146b181614528565b81146146bc57600080fd5b50565b6146c881614552565b81146146d357600080fd5b5056fea26469706673582212202bd6ac0a1e8bcbdf9a3bd530e5ecc3dcfae397d17c2ccd279a8cbbeaecc67cd964736f6c63430008000033",
  "immutableReferences": {},
  "source": "//\"SPDX-License-Identifier: MIT\"//\r\npragma solidity ^0.8.0;\r\nimport \"./Ownable.sol\";\r\n\r\ncontract CoffeeSupplyChain is Ownable {\r\n    event PerformCultivation(address indexed user, address indexed batchNo);\r\n    event DoneInspection(address indexed user, address indexed batchNo);\r\n    event DoneHarvesting(address indexed user, address indexed batchNo);\r\n    event DoneExporting(address indexed user, address indexed batchNo);\r\n    event DoneImporting(address indexed user, address indexed batchNo);\r\n    event DoneProcessing(address indexed user, address indexed batchNo);\r\n    event setUsers(\r\n        address indexed user,\r\n        string name,\r\n        string contactNo,\r\n        string role,\r\n        bool isActive,\r\n        string profileHash\r\n    );\r\n    event UserUpdate(\r\n        address indexed user,\r\n        string name,\r\n        string contactNo,\r\n        string role,\r\n        bool isActive,\r\n        string profileHash\r\n    );\r\n    event UserRoleUpdate(address indexed user, string role);\r\n\r\n    /*Modifier*/\r\n    modifier isValidPerformer(address batchNo, string memory role) {\r\n        require(\r\n            keccak256(abi.encodePacked(getUserRole(msg.sender))) ==\r\n                keccak256(abi.encodePacked(role))\r\n        );\r\n        require(\r\n            keccak256(abi.encodePacked(getNextAction(batchNo))) ==\r\n                keccak256(abi.encodePacked(role))\r\n        );\r\n        _;\r\n    }\r\n\r\n    address public lastAccess;\r\n\r\n    constructor() {\r\n        authorizedCaller[msg.sender] = 1;\r\n        emit AuthorizedCaller(msg.sender);\r\n    }\r\n\r\n    /* Events */\r\n    event AuthorizedCaller(address caller);\r\n    event DeAuthorizedCaller(address caller);\r\n\r\n    /* Modifiers */\r\n\r\n    modifier onlyAuthCaller() {\r\n        lastAccess = msg.sender;\r\n        require(authorizedCaller[msg.sender] == 1);\r\n        _;\r\n    }\r\n\r\n    /* User Related */\r\n    struct user {\r\n        string name;\r\n        string contactNo;\r\n        bool isActive;\r\n        string profileHash;\r\n    }\r\n\r\n    struct basicDetails {\r\n        string registrationNo;\r\n        string farmerName;\r\n        string farmAddress;\r\n        string exporterName;\r\n        string importerName;\r\n    }\r\n\r\n    struct farmInspector {\r\n        string coffeeFamily;\r\n        string typeOfSeed;\r\n        string fertilizerUsed;\r\n    }\r\n\r\n    struct harvester {\r\n        string cropVariety;\r\n        string temperatureUsed;\r\n        string humidity;\r\n    }\r\n\r\n    struct exporter {\r\n        string destinationAddress;\r\n        string shipName;\r\n        string shipNo;\r\n        uint256 quantity;\r\n        uint256 departureDateTime;\r\n        uint256 estimateDateTime;\r\n        uint256 plantNo;\r\n        uint256 exporterId;\r\n    }\r\n\r\n    struct importer {\r\n        uint256 quantity;\r\n        uint256 arrivalDateTime;\r\n        uint256 importerId;\r\n        string shipName;\r\n        string shipNo;\r\n        string transportInfo;\r\n        string warehouseName;\r\n        string warehouseAddress;\r\n    }\r\n\r\n    struct processor {\r\n        uint256 quantity;\r\n        uint256 rostingDuration;\r\n        uint256 packageDateTime;\r\n        string temperature;\r\n        string internalBatchNo;\r\n        string processorName;\r\n        string processorAddress;\r\n    }\r\n\r\n    mapping(address => user) userDetails;\r\n    mapping(address => string) userRole;\r\n    mapping(address => uint8) authorizedCaller;\r\n    mapping(address => basicDetails) batchBasicDetails;\r\n    mapping(address => farmInspector) batchFarmInspector;\r\n    mapping(address => harvester) batchHarvester;\r\n    mapping(address => exporter) batchExporter;\r\n    mapping(address => importer) batchImporter;\r\n    mapping(address => processor) batchProcessor;\r\n    mapping(address => string) nextAction;\r\n\r\n    /*Initialize struct pointer*/\r\n    // user userDetail;\r\n    user userDetail;\r\n    basicDetails basicDetailsData;\r\n    farmInspector farmInspectorData;\r\n    harvester harvesterData;\r\n    exporter exporterData;\r\n    importer importerData;\r\n    processor processorData;\r\n\r\n    /* authorize caller */\r\n    function authorizeCaller(address _caller) public onlyOwner returns (bool) {\r\n        authorizedCaller[_caller] = 1;\r\n        emit AuthorizedCaller(_caller);\r\n        return true;\r\n    }\r\n\r\n    /* deauthorize caller */\r\n    function deAuthorizeCaller(address _caller)\r\n        public\r\n        onlyOwner\r\n        returns (bool)\r\n    {\r\n        authorizedCaller[_caller] = 0;\r\n        emit DeAuthorizedCaller(_caller);\r\n        return true;\r\n    }\r\n\r\n    /* Get User Role */\r\n    function getUserRole(address _userAddress)\r\n        public\r\n        view\r\n        returns (string memory)\r\n    {\r\n        return userRole[_userAddress];\r\n    }\r\n\r\n    /* Get Next Action  */\r\n    function getNextAction(address _batchNo)\r\n        public\r\n        view\r\n        returns (string memory)\r\n    {\r\n        return nextAction[_batchNo];\r\n    }\r\n\r\n    /*set user details*/\r\n    function addUser(\r\n        address _userAddress,\r\n        string memory _name,\r\n        string memory _contactNo,\r\n        string memory _role,\r\n        bool _isActive,\r\n        string memory _profileHash\r\n    ) public onlyOwner returns (bool) {\r\n        /*store data into struct*/\r\n\r\n        userDetail.name = _name;\r\n        userDetail.contactNo = _contactNo;\r\n        userDetail.isActive = _isActive;\r\n        userDetail.profileHash = _profileHash;\r\n\r\n        /*store data into mapping*/\r\n        userDetails[_userAddress] = userDetail;\r\n        userRole[_userAddress] = _role;\r\n\r\n        return true;\r\n    }\r\n\r\n    function setUser(\r\n        address _userAddress,\r\n        string memory _name,\r\n        string memory _contactNo,\r\n        string memory _role,\r\n        bool _isActive,\r\n        string memory _profileHash\r\n    ) private onlyAuthCaller returns (bool) {\r\n        /*store data into struct*/\r\n\r\n        userDetail.name = _name;\r\n        userDetail.contactNo = _contactNo;\r\n        userDetail.isActive = _isActive;\r\n        userDetail.profileHash = _profileHash;\r\n\r\n        /*store data into mapping*/\r\n        userDetails[_userAddress] = userDetail;\r\n        userRole[_userAddress] = _role;\r\n\r\n        return true;\r\n    }\r\n\r\n    /*get user details*/\r\n    function getUser(address _userAddress)\r\n        public\r\n        view\r\n        returns (\r\n            string memory name,\r\n            string memory contactNo,\r\n            string memory role,\r\n            bool isActive,\r\n            string memory profileHash\r\n        )\r\n    {\r\n        /*Getting value from struct*/\r\n        user memory tmpData = userDetails[_userAddress];\r\n\r\n        return (\r\n            tmpData.name,\r\n            tmpData.contactNo,\r\n            userRole[_userAddress],\r\n            tmpData.isActive,\r\n            tmpData.profileHash\r\n        );\r\n    }\r\n\r\n    /* get Basic Details */\r\n\r\n    function getBasicDetails(address _batchNo)\r\n        public\r\n        view\r\n        returns (\r\n            string memory registrationNo,\r\n            string memory farmerName,\r\n            string memory farmAddress,\r\n            string memory exporterName,\r\n            string memory importerName\r\n        )\r\n    {\r\n        /* Call Storage Contract */\r\n\r\n        basicDetails memory tmpData = batchBasicDetails[_batchNo];\r\n\r\n        return (\r\n            tmpData.registrationNo,\r\n            tmpData.farmerName,\r\n            tmpData.farmAddress,\r\n            tmpData.exporterName,\r\n            tmpData.importerName\r\n        );\r\n    }\r\n\r\n    /* perform Basic Cultivation */\r\n\r\n    function addBasicDetails(\r\n        string memory _registrationNo,\r\n        string memory _farmerName,\r\n        string memory _farmAddress,\r\n        string memory _exporterName,\r\n        string memory _importerName\r\n    ) public onlyOwner returns (address) {\r\n        address batchNo = address(\r\n            bytes20(sha256(abi.encodePacked(msg.sender, block.timestamp)))\r\n        );\r\n\r\n        //      address batchNo = address (keccak256(msg.sender, block.timestamp));\r\n\r\n        basicDetailsData.registrationNo = _registrationNo;\r\n        basicDetailsData.farmerName = _farmerName;\r\n        basicDetailsData.farmAddress = _farmAddress;\r\n        basicDetailsData.exporterName = _exporterName;\r\n        basicDetailsData.importerName = _importerName;\r\n\r\n        batchBasicDetails[batchNo] = basicDetailsData;\r\n\r\n        nextAction[batchNo] = \"FARM_INSPECTION\";\r\n\r\n        emit PerformCultivation(msg.sender, batchNo);\r\n\r\n        return (batchNo);\r\n\r\n        // return batchNo;\r\n    }\r\n\r\n    /*get farm inspactor data*/\r\n    function getFarmInspectorData(address batchNo)\r\n        public\r\n        view\r\n        returns (\r\n            string memory coffeeFamily,\r\n            string memory typeOfSeed,\r\n            string memory fertilizerUsed\r\n        )\r\n    {\r\n        farmInspector memory tmpData = batchFarmInspector[batchNo];\r\n        return (\r\n            tmpData.coffeeFamily,\r\n            tmpData.typeOfSeed,\r\n            tmpData.fertilizerUsed\r\n        );\r\n    }\r\n\r\n    function updateFarmInspectorData(\r\n        address batchNo,\r\n        string memory _coffeeFamily,\r\n        string memory _typeOfSeed,\r\n        string memory _fertilizerUsed\r\n    ) public isValidPerformer(batchNo, \"FARM_INSPECTION\") returns (bool) {\r\n        farmInspectorData.coffeeFamily = _coffeeFamily;\r\n        farmInspectorData.typeOfSeed = _typeOfSeed;\r\n        farmInspectorData.fertilizerUsed = _fertilizerUsed;\r\n\r\n        batchFarmInspector[batchNo] = farmInspectorData;\r\n\r\n        nextAction[batchNo] = \"HARVESTER\";\r\n\r\n        return true;\r\n    }\r\n\r\n    /*get farm Harvester data*/\r\n    function getHarvesterData(address batchNo)\r\n        public\r\n        view\r\n        returns (\r\n            string memory cropVariety,\r\n            string memory temperatureUsed,\r\n            string memory humidity\r\n        )\r\n    {\r\n        harvester memory tmpData = batchHarvester[batchNo];\r\n        return (tmpData.cropVariety, tmpData.temperatureUsed, tmpData.humidity);\r\n    }\r\n\r\n    /*set Harvester data*/\r\n    function updateHarvesterData(\r\n        address batchNo,\r\n        string memory _cropVariety,\r\n        string memory _temperatureUsed,\r\n        string memory _humidity\r\n    ) public isValidPerformer(batchNo, \"HARVESTER\") returns (bool) {\r\n        harvesterData.cropVariety = _cropVariety;\r\n        harvesterData.temperatureUsed = _temperatureUsed;\r\n        harvesterData.humidity = _humidity;\r\n\r\n        batchHarvester[batchNo] = harvesterData;\r\n\r\n        nextAction[batchNo] = \"EXPORTER\";\r\n\r\n        return true;\r\n    }\r\n\r\n    function getExporterData(address batchNo)\r\n        public\r\n        view\r\n        returns (\r\n            uint256 quantity,\r\n            string memory destinationAddress,\r\n            string memory shipName,\r\n            string memory shipNo,\r\n            uint256 departureDateTime,\r\n            uint256 estimateDateTime,\r\n            uint256 exporterId\r\n        )\r\n    {\r\n        /* Call Storage Contract */\r\n        exporter memory tmpData = batchExporter[batchNo];\r\n\r\n        return (\r\n            tmpData.quantity,\r\n            tmpData.destinationAddress,\r\n            tmpData.shipName,\r\n            tmpData.shipNo,\r\n            tmpData.departureDateTime,\r\n            tmpData.estimateDateTime,\r\n            tmpData.exporterId\r\n        );\r\n    }\r\n\r\n    /* perform Export */\r\n    /*set Exporter data*/\r\n    function updateExporterData(\r\n        address batchNo,\r\n        uint256 _quantity,\r\n        string memory _destinationAddress,\r\n        string memory _shipName,\r\n        string memory _shipNo,\r\n        uint256 _estimateDateTime,\r\n        uint256 _exporterId\r\n    ) public isValidPerformer(batchNo, \"EXPORTER\") returns (bool) {\r\n        exporterData.quantity = _quantity;\r\n        exporterData.destinationAddress = _destinationAddress;\r\n        exporterData.shipName = _shipName;\r\n        exporterData.shipNo = _shipNo;\r\n        exporterData.departureDateTime = block.timestamp;\r\n        exporterData.estimateDateTime = _estimateDateTime;\r\n        exporterData.exporterId = _exporterId;\r\n\r\n        batchExporter[batchNo] = exporterData;\r\n\r\n        nextAction[batchNo] = \"IMPORTER\";\r\n\r\n        return true;\r\n    }\r\n\r\n    /* get Import */\r\n\r\n    /*set Importer data*/\r\n    function updateImporterData(\r\n        address batchNo,\r\n        uint256 _quantity,\r\n        string memory _shipName,\r\n        string memory _shipNo,\r\n        string memory _transportInfo,\r\n        string memory _warehouseName,\r\n        string memory _warehouseAddress,\r\n        uint256 _importerId\r\n    ) public isValidPerformer(batchNo, \"IMPORTER\") returns (bool) {\r\n        importerData.quantity = _quantity;\r\n        importerData.shipName = _shipName;\r\n        importerData.shipNo = _shipNo;\r\n        importerData.arrivalDateTime = block.timestamp;\r\n        importerData.transportInfo = _transportInfo;\r\n        importerData.warehouseName = _warehouseName;\r\n        importerData.warehouseAddress = _warehouseAddress;\r\n        importerData.importerId = _importerId;\r\n\r\n        batchImporter[batchNo] = importerData;\r\n\r\n        nextAction[batchNo] = \"PROCESSOR\";\r\n\r\n        return true;\r\n    }\r\n\r\n    /*get Importer data*/\r\n    function getImporterData(address batchNo)\r\n        public\r\n        view\r\n        returns (\r\n            uint256 quantity,\r\n            string memory shipName,\r\n            string memory shipNo,\r\n            uint256 arrivalDateTime,\r\n            string memory transportInfo,\r\n            string memory warehouseName,\r\n            string memory warehouseAddress,\r\n            uint256 importerId\r\n        )\r\n    {\r\n        importer memory tmpData = batchImporter[batchNo];\r\n\r\n        return (\r\n            tmpData.quantity,\r\n            tmpData.shipName,\r\n            tmpData.shipNo,\r\n            tmpData.arrivalDateTime,\r\n            tmpData.transportInfo,\r\n            tmpData.warehouseName,\r\n            tmpData.warehouseAddress,\r\n            tmpData.importerId\r\n        );\r\n    }\r\n\r\n    /*set Proccessor data*/\r\n    function updateProcessorData(\r\n        address batchNo,\r\n        uint256 _quantity,\r\n        string memory _temperature,\r\n        uint256 _rostingDuration,\r\n        string memory _internalBatchNo,\r\n        uint256 _packageDateTime,\r\n        string memory _processorName,\r\n        string memory _processorAddress\r\n    ) public isValidPerformer(batchNo, \"PROCESSOR\") returns (bool) {\r\n        processorData.quantity = _quantity;\r\n        processorData.temperature = _temperature;\r\n        processorData.rostingDuration = _rostingDuration;\r\n        processorData.internalBatchNo = _internalBatchNo;\r\n        processorData.packageDateTime = _packageDateTime;\r\n        processorData.processorName = _processorName;\r\n        processorData.processorAddress = _processorAddress;\r\n\r\n        batchProcessor[batchNo] = processorData;\r\n\r\n        nextAction[batchNo] = \"DONE\";\r\n\r\n        return true;\r\n    }\r\n\r\n    /*get Processor data*/\r\n    function getProcessorData(address batchNo)\r\n        public\r\n        view\r\n        returns (\r\n            uint256 quantity,\r\n            string memory temperature,\r\n            uint256 rostingDuration,\r\n            string memory internalBatchNo,\r\n            uint256 packageDateTime,\r\n            string memory processorName,\r\n            string memory processorAddress\r\n        )\r\n    {\r\n        processor memory tmpData = batchProcessor[batchNo];\r\n\r\n        return (\r\n            tmpData.quantity,\r\n            tmpData.temperature,\r\n            tmpData.rostingDuration,\r\n            tmpData.internalBatchNo,\r\n            tmpData.packageDateTime,\r\n            tmpData.processorName,\r\n            tmpData.processorAddress\r\n        );\r\n    }\r\n\r\n    /* Create/Update User For Admin  */\r\n    function updateUserForAdmin(\r\n        address _userAddress,\r\n        string memory _name,\r\n        string memory _contactNo,\r\n        string memory _role,\r\n        bool _isActive,\r\n        string memory _profileHash\r\n    ) public onlyOwner returns (bool) {\r\n        require(_userAddress != address(0));\r\n\r\n        /* Call Storage Contract */\r\n        bool status = addUser(\r\n            _userAddress,\r\n            _name,\r\n            _contactNo,\r\n            _role,\r\n            _isActive,\r\n            _profileHash\r\n        );\r\n\r\n        /*call event*/\r\n        emit UserUpdate(\r\n            _userAddress,\r\n            _name,\r\n            _contactNo,\r\n            _role,\r\n            _isActive,\r\n            _profileHash\r\n        );\r\n        emit UserRoleUpdate(_userAddress, _role);\r\n\r\n        return status;\r\n    }\r\n\r\n    /* Create/Update User */\r\n\r\n    function userUpdate(\r\n        address _userAddress,\r\n        string memory _name,\r\n        string memory _contactNo,\r\n        string memory _role,\r\n        bool _isActive,\r\n        string memory _profileHash\r\n    ) public onlyAuthCaller returns (bool) {\r\n        require(msg.sender == _userAddress);\r\n\r\n        bool status = setUser(\r\n            _userAddress,\r\n            _name,\r\n            _contactNo,\r\n            _role,\r\n            _isActive,\r\n            _profileHash\r\n        );\r\n        /*call event*/\r\n        emit setUsers(\r\n            _userAddress,\r\n            _name,\r\n            _contactNo,\r\n            _role,\r\n            _isActive,\r\n            _profileHash\r\n        );\r\n        emit UserRoleUpdate(_userAddress, _role);\r\n\r\n        return status;\r\n    }\r\n}\r\n",
  "sourcePath": "C:\\Users\\sivven01\\Desktop\\webdevelopment\\kickstart\\contracts\\CoffeeSupplyChain.sol",
  "compiler": {
    "name": "solc",
    "version": "0.8.0+commit.c7dfd78e.Emscripten.clang"
  },
  "schemaVersion": "3.4.3",
  "updatedAt": "2021-08-29T03:06:41.999Z",
  "networkType": "ethereum",
  "devdoc": {
    "kind": "dev",
    "methods": {
      "renounceOwnership()": {
        "details": "Allows the current owner to relinquish control of the contract."
      },
      "transferOwnership(address)": {
        "details": "Allows the current owner to transfer control of the contract to a newOwner.",
        "params": {
          "newOwner": "The address to transfer ownership to."
        }
      }
    },
    "version": 1
  },
  "userdoc": {
    "kind": "user",
    "methods": {},
    "version": 1
  }
}